{
  "contractName": "TokenGenerator",
  "abi": [
    {
      "inputs": [],
      "stateMutability": "nonpayable",
      "type": "constructor"
    },
    {
      "inputs": [
        {
          "internalType": "address",
          "name": "",
          "type": "address"
        }
      ],
      "name": "generatedTokens",
      "outputs": [
        {
          "internalType": "address",
          "name": "",
          "type": "address"
        }
      ],
      "stateMutability": "view",
      "type": "function",
      "constant": true
    },
    {
      "inputs": [
        {
          "internalType": "uint256",
          "name": "totalSupply",
          "type": "uint256"
        },
        {
          "internalType": "string",
          "name": "name",
          "type": "string"
        },
        {
          "internalType": "string",
          "name": "symbol",
          "type": "string"
        }
      ],
      "name": "createErc20Token",
      "outputs": [
        {
          "internalType": "address",
          "name": "",
          "type": "address"
        }
      ],
      "stateMutability": "nonpayable",
      "type": "function"
    },
    {
      "inputs": [
        {
          "internalType": "uint256",
          "name": "totalSupply",
          "type": "uint256"
        },
        {
          "internalType": "string",
          "name": "name",
          "type": "string"
        },
        {
          "internalType": "string",
          "name": "symbol",
          "type": "string"
        }
      ],
      "name": "createMintableERC20Token",
      "outputs": [
        {
          "internalType": "address",
          "name": "",
          "type": "address"
        }
      ],
      "stateMutability": "nonpayable",
      "type": "function"
    }
  ],
  "bytecode": "0x608060405234801561001057600080fd5b50614759806100206000396000f3fe60806040523480156200001157600080fd5b5060043610620000465760003560e01c8063158ae28e146200004b5780632fe55e391462000081578063502a81e614620000b7575b600080fd5b6200006960048036038101906200006391906200025b565b620000ed565b6040516200007891906200029e565b60405180910390f35b6200009f600480360381019062000099919062000458565b62000120565b604051620000ae91906200029e565b60405180910390f35b620000d56004803603810190620000cf919062000458565b62000173565b604051620000e491906200029e565b60405180910390f35b60006020528060005260406000206000915054906101000a900473ffffffffffffffffffffffffffffffffffffffff1681565b60008033905060008484876040516200013990620001c6565b620001479392919062000596565b604051809103906000f08015801562000164573d6000803e3d6000fd5b50905080925050509392505050565b60008033905060008484876040516200018c90620001d4565b6200019a9392919062000596565b604051809103906000f080158015620001b7573d6000803e3d6000fd5b50905080925050509392505050565b61246880620005e283390190565b611cda8062002a4a83390190565b6000604051905090565b600080fd5b600080fd5b600073ffffffffffffffffffffffffffffffffffffffff82169050919050565b60006200022382620001f6565b9050919050565b620002358162000216565b81146200024157600080fd5b50565b60008135905062000255816200022a565b92915050565b600060208284031215620002745762000273620001ec565b5b6000620002848482850162000244565b91505092915050565b620002988162000216565b82525050565b6000602082019050620002b560008301846200028d565b92915050565b6000819050919050565b620002d081620002bb565b8114620002dc57600080fd5b50565b600081359050620002f081620002c5565b92915050565b600080fd5b600080fd5b6000601f19601f8301169050919050565b7f4e487b7100000000000000000000000000000000000000000000000000000000600052604160045260246000fd5b6200034b8262000300565b810181811067ffffffffffffffff821117156200036d576200036c62000311565b5b80604052505050565b600062000382620001e2565b905062000390828262000340565b919050565b600067ffffffffffffffff821115620003b357620003b262000311565b5b620003be8262000300565b9050602081019050919050565b82818337600083830152505050565b6000620003f1620003eb8462000395565b62000376565b90508281526020810184848401111562000410576200040f620002fb565b5b6200041d848285620003cb565b509392505050565b600082601f8301126200043d576200043c620002f6565b5b81356200044f848260208601620003da565b91505092915050565b600080600060608486031215620004745762000473620001ec565b5b60006200048486828701620002df565b935050602084013567ffffffffffffffff811115620004a857620004a7620001f1565b5b620004b68682870162000425565b925050604084013567ffffffffffffffff811115620004da57620004d9620001f1565b5b620004e88682870162000425565b9150509250925092565b600081519050919050565b600082825260208201905092915050565b60005b838110156200052e57808201518184015260208101905062000511565b838111156200053e576000848401525b50505050565b60006200055182620004f2565b6200055d8185620004fd565b93506200056f8185602086016200050e565b6200057a8162000300565b840191505092915050565b6200059081620002bb565b82525050565b60006060820190508181036000830152620005b2818662000544565b90508181036020830152620005c8818562000544565b9050620005d9604083018462000585565b94935050505056fe60806040523480156200001157600080fd5b5060405162002468380380620024688339818101604052810190620000379190620005c5565b82828282828160039080519060200190620000549291906200033d565b5080600490805190602001906200006d9291906200033d565b5050506000811115620000b757620000b6336200008f620000e360201b60201c565b600a6200009d9190620007ef565b83620000aa919062000840565b620000ec60201b60201c565b5b505050620000da620000ce6200026560201b60201c565b6200026d60201b60201c565b50505062000a14565b60006012905090565b600073ffffffffffffffffffffffffffffffffffffffff168273ffffffffffffffffffffffffffffffffffffffff1614156200015f576040517f08c379a0000000000000000000000000000000000000000000000000000000008152600401620001569062000902565b60405180910390fd5b62000173600083836200033360201b60201c565b806002600082825462000187919062000924565b92505081905550806000808473ffffffffffffffffffffffffffffffffffffffff1673ffffffffffffffffffffffffffffffffffffffff1681526020019081526020016000206000828254620001de919062000924565b925050819055508173ffffffffffffffffffffffffffffffffffffffff16600073ffffffffffffffffffffffffffffffffffffffff167fddf252ad1be2c89b69c2b068fc378daa952ba7f163c4a11628f55a4df523b3ef8360405162000245919062000992565b60405180910390a362000261600083836200033860201b60201c565b5050565b600033905090565b6000600560009054906101000a900473ffffffffffffffffffffffffffffffffffffffff16905081600560006101000a81548173ffffffffffffffffffffffffffffffffffffffff021916908373ffffffffffffffffffffffffffffffffffffffff1602179055508173ffffffffffffffffffffffffffffffffffffffff168173ffffffffffffffffffffffffffffffffffffffff167f8be0079c531659141344cd1fd0a4f28419497f9722a3daafe3b4186f6b6457e060405160405180910390a35050565b505050565b505050565b8280546200034b90620009de565b90600052602060002090601f0160209004810192826200036f5760008555620003bb565b82601f106200038a57805160ff1916838001178555620003bb565b82800160010185558215620003bb579182015b82811115620003ba5782518255916020019190600101906200039d565b5b509050620003ca9190620003ce565b5090565b5b80821115620003e9576000816000905550600101620003cf565b5090565b6000604051905090565b600080fd5b600080fd5b600080fd5b600080fd5b6000601f19601f8301169050919050565b7f4e487b7100000000000000000000000000000000000000000000000000000000600052604160045260246000fd5b62000456826200040b565b810181811067ffffffffffffffff821117156200047857620004776200041c565b5b80604052505050565b60006200048d620003ed565b90506200049b82826200044b565b919050565b600067ffffffffffffffff821115620004be57620004bd6200041c565b5b620004c9826200040b565b9050602081019050919050565b60005b83811015620004f6578082015181840152602081019050620004d9565b8381111562000506576000848401525b50505050565b6000620005236200051d84620004a0565b62000481565b90508281526020810184848401111562000542576200054162000406565b5b6200054f848285620004d6565b509392505050565b600082601f8301126200056f576200056e62000401565b5b8151620005818482602086016200050c565b91505092915050565b6000819050919050565b6200059f816200058a565b8114620005ab57600080fd5b50565b600081519050620005bf8162000594565b92915050565b600080600060608486031215620005e157620005e0620003f7565b5b600084015167ffffffffffffffff811115620006025762000601620003fc565b5b620006108682870162000557565b935050602084015167ffffffffffffffff811115620006345762000633620003fc565b5b620006428682870162000557565b92505060406200065586828701620005ae565b9150509250925092565b7f4e487b7100000000000000000000000000000000000000000000000000000000600052601160045260246000fd5b60008160011c9050919050565b6000808291508390505b6001851115620006ed57808604811115620006c557620006c46200065f565b5b6001851615620006d55780820291505b8081029050620006e5856200068e565b9450620006a5565b94509492505050565b600082620007085760019050620007db565b81620007185760009050620007db565b81600181146200073157600281146200073c5762000772565b6001915050620007db565b60ff8411156200075157620007506200065f565b5b8360020a9150848211156200076b576200076a6200065f565b5b50620007db565b5060208310610133831016604e8410600b8410161715620007ac5782820a905083811115620007a657620007a56200065f565b5b620007db565b620007bb84848460016200069b565b92509050818404811115620007d557620007d46200065f565b5b81810290505b9392505050565b600060ff82169050919050565b6000620007fc826200058a565b91506200080983620007e2565b9250620008387fffffffffffffffffffffffffffffffffffffffffffffffffffffffffffffffff8484620006f6565b905092915050565b60006200084d826200058a565b91506200085a836200058a565b9250817fffffffffffffffffffffffffffffffffffffffffffffffffffffffffffffffff04831182151516156200089657620008956200065f565b5b828202905092915050565b600082825260208201905092915050565b7f45524332303a206d696e7420746f20746865207a65726f206164647265737300600082015250565b6000620008ea601f83620008a1565b9150620008f782620008b2565b602082019050919050565b600060208201905081810360008301526200091d81620008db565b9050919050565b600062000931826200058a565b91506200093e836200058a565b9250827fffffffffffffffffffffffffffffffffffffffffffffffffffffffffffffffff038211156200097657620009756200065f565b5b828201905092915050565b6200098c816200058a565b82525050565b6000602082019050620009a9600083018462000981565b92915050565b7f4e487b7100000000000000000000000000000000000000000000000000000000600052602260045260246000fd5b60006002820490506001821680620009f757607f821691505b6020821081141562000a0e5762000a0d620009af565b5b50919050565b611a448062000a246000396000f3fe608060405234801561001057600080fd5b50600436106100f55760003560e01c806370a0823111610097578063a457c2d711610066578063a457c2d714610276578063a9059cbb146102a6578063dd62ed3e146102d6578063f2fde38b14610306576100f5565b806370a0823114610200578063715018a6146102305780638da5cb5b1461023a57806395d89b4114610258576100f5565b806323b872dd116100d357806323b872dd14610166578063313ce5671461019657806339509351146101b457806340c10f19146101e4576100f5565b806306fdde03146100fa578063095ea7b31461011857806318160ddd14610148575b600080fd5b610102610322565b60405161010f9190611144565b60405180910390f35b610132600480360381019061012d91906111ff565b6103b4565b60405161013f919061125a565b60405180910390f35b6101506103d2565b60405161015d9190611284565b60405180910390f35b610180600480360381019061017b919061129f565b6103dc565b60405161018d919061125a565b60405180910390f35b61019e6104d4565b6040516101ab919061130e565b60405180910390f35b6101ce60048036038101906101c991906111ff565b6104dd565b6040516101db919061125a565b60405180910390f35b6101fe60048036038101906101f991906111ff565b610589565b005b61021a60048036038101906102159190611329565b610613565b6040516102279190611284565b60405180910390f35b61023861065b565b005b6102426106e3565b60405161024f9190611365565b60405180910390f35b61026061070d565b60405161026d9190611144565b60405180910390f35b610290600480360381019061028b91906111ff565b61079f565b60405161029d919061125a565b60405180910390f35b6102c060048036038101906102bb91906111ff565b61088a565b6040516102cd919061125a565b60405180910390f35b6102f060048036038101906102eb9190611380565b6108a8565b6040516102fd9190611284565b60405180910390f35b610320600480360381019061031b9190611329565b61092f565b005b606060038054610331906113ef565b80601f016020809104026020016040519081016040528092919081815260200182805461035d906113ef565b80156103aa5780601f1061037f576101008083540402835291602001916103aa565b820191906000526020600020905b81548152906001019060200180831161038d57829003601f168201915b5050505050905090565b60006103c86103c1610a27565b8484610a2f565b6001905092915050565b6000600254905090565b60006103e9848484610bfa565b6000600160008673ffffffffffffffffffffffffffffffffffffffff1673ffffffffffffffffffffffffffffffffffffffff1681526020019081526020016000206000610434610a27565b73ffffffffffffffffffffffffffffffffffffffff1673ffffffffffffffffffffffffffffffffffffffff168152602001908152602001600020549050828110156104b4576040517f08c379a00000000000000000000000000000000000000000000000000000000081526004016104ab90611493565b60405180910390fd5b6104c8856104c0610a27565b858403610a2f565b60019150509392505050565b60006012905090565b600061057f6104ea610a27565b8484600160006104f8610a27565b73ffffffffffffffffffffffffffffffffffffffff1673ffffffffffffffffffffffffffffffffffffffff16815260200190815260200160002060008873ffffffffffffffffffffffffffffffffffffffff1673ffffffffffffffffffffffffffffffffffffffff1681526020019081526020016000205461057a91906114e2565b610a2f565b6001905092915050565b610591610a27565b73ffffffffffffffffffffffffffffffffffffffff166105af6106e3565b73ffffffffffffffffffffffffffffffffffffffff1614610605576040517f08c379a00000000000000000000000000000000000000000000000000000000081526004016105fc90611584565b60405180910390fd5b61060f8282610e7b565b5050565b60008060008373ffffffffffffffffffffffffffffffffffffffff1673ffffffffffffffffffffffffffffffffffffffff168152602001908152602001600020549050919050565b610663610a27565b73ffffffffffffffffffffffffffffffffffffffff166106816106e3565b73ffffffffffffffffffffffffffffffffffffffff16146106d7576040517f08c379a00000000000000000000000000000000000000000000000000000000081526004016106ce90611584565b60405180910390fd5b6106e16000610fdb565b565b6000600560009054906101000a900473ffffffffffffffffffffffffffffffffffffffff16905090565b60606004805461071c906113ef565b80601f0160208091040260200160405190810160405280929190818152602001828054610748906113ef565b80156107955780601f1061076a57610100808354040283529160200191610795565b820191906000526020600020905b81548152906001019060200180831161077857829003601f168201915b5050505050905090565b600080600160006107ae610a27565b73ffffffffffffffffffffffffffffffffffffffff1673ffffffffffffffffffffffffffffffffffffffff16815260200190815260200160002060008573ffffffffffffffffffffffffffffffffffffffff1673ffffffffffffffffffffffffffffffffffffffff1681526020019081526020016000205490508281101561086b576040517f08c379a000000000000000000000000000000000000000000000000000000000815260040161086290611616565b60405180910390fd5b61087f610876610a27565b85858403610a2f565b600191505092915050565b600061089e610897610a27565b8484610bfa565b6001905092915050565b6000600160008473ffffffffffffffffffffffffffffffffffffffff1673ffffffffffffffffffffffffffffffffffffffff16815260200190815260200160002060008373ffffffffffffffffffffffffffffffffffffffff1673ffffffffffffffffffffffffffffffffffffffff16815260200190815260200160002054905092915050565b610937610a27565b73ffffffffffffffffffffffffffffffffffffffff166109556106e3565b73ffffffffffffffffffffffffffffffffffffffff16146109ab576040517f08c379a00000000000000000000000000000000000000000000000000000000081526004016109a290611584565b60405180910390fd5b600073ffffffffffffffffffffffffffffffffffffffff168173ffffffffffffffffffffffffffffffffffffffff161415610a1b576040517f08c379a0000000000000000000000000000000000000000000000000000000008152600401610a12906116a8565b60405180910390fd5b610a2481610fdb565b50565b600033905090565b600073ffffffffffffffffffffffffffffffffffffffff168373ffffffffffffffffffffffffffffffffffffffff161415610a9f576040517f08c379a0000000000000000000000000000000000000000000000000000000008152600401610a969061173a565b60405180910390fd5b600073ffffffffffffffffffffffffffffffffffffffff168273ffffffffffffffffffffffffffffffffffffffff161415610b0f576040517f08c379a0000000000000000000000000000000000000000000000000000000008152600401610b06906117cc565b60405180910390fd5b80600160008573ffffffffffffffffffffffffffffffffffffffff1673ffffffffffffffffffffffffffffffffffffffff16815260200190815260200160002060008473ffffffffffffffffffffffffffffffffffffffff1673ffffffffffffffffffffffffffffffffffffffff168152602001908152602001600020819055508173ffffffffffffffffffffffffffffffffffffffff168373ffffffffffffffffffffffffffffffffffffffff167f8c5be1e5ebec7d5bd14f71427d1e84f3dd0314c0f7b2291e5b200ac8c7c3b92583604051610bed9190611284565b60405180910390a3505050565b600073ffffffffffffffffffffffffffffffffffffffff168373ffffffffffffffffffffffffffffffffffffffff161415610c6a576040517f08c379a0000000000000000000000000000000000000000000000000000000008152600401610c619061185e565b60405180910390fd5b600073ffffffffffffffffffffffffffffffffffffffff168273ffffffffffffffffffffffffffffffffffffffff161415610cda576040517f08c379a0000000000000000000000000000000000000000000000000000000008152600401610cd1906118f0565b60405180910390fd5b610ce58383836110a1565b60008060008573ffffffffffffffffffffffffffffffffffffffff1673ffffffffffffffffffffffffffffffffffffffff16815260200190815260200160002054905081811015610d6b576040517f08c379a0000000000000000000000000000000000000000000000000000000008152600401610d6290611982565b60405180910390fd5b8181036000808673ffffffffffffffffffffffffffffffffffffffff1673ffffffffffffffffffffffffffffffffffffffff16815260200190815260200160002081905550816000808573ffffffffffffffffffffffffffffffffffffffff1673ffffffffffffffffffffffffffffffffffffffff1681526020019081526020016000206000828254610dfe91906114e2565b925050819055508273ffffffffffffffffffffffffffffffffffffffff168473ffffffffffffffffffffffffffffffffffffffff167fddf252ad1be2c89b69c2b068fc378daa952ba7f163c4a11628f55a4df523b3ef84604051610e629190611284565b60405180910390a3610e758484846110a6565b50505050565b600073ffffffffffffffffffffffffffffffffffffffff168273ffffffffffffffffffffffffffffffffffffffff161415610eeb576040517f08c379a0000000000000000000000000000000000000000000000000000000008152600401610ee2906119ee565b60405180910390fd5b610ef7600083836110a1565b8060026000828254610f0991906114e2565b92505081905550806000808473ffffffffffffffffffffffffffffffffffffffff1673ffffffffffffffffffffffffffffffffffffffff1681526020019081526020016000206000828254610f5e91906114e2565b925050819055508173ffffffffffffffffffffffffffffffffffffffff16600073ffffffffffffffffffffffffffffffffffffffff167fddf252ad1be2c89b69c2b068fc378daa952ba7f163c4a11628f55a4df523b3ef83604051610fc39190611284565b60405180910390a3610fd7600083836110a6565b5050565b6000600560009054906101000a900473ffffffffffffffffffffffffffffffffffffffff16905081600560006101000a81548173ffffffffffffffffffffffffffffffffffffffff021916908373ffffffffffffffffffffffffffffffffffffffff1602179055508173ffffffffffffffffffffffffffffffffffffffff168173ffffffffffffffffffffffffffffffffffffffff167f8be0079c531659141344cd1fd0a4f28419497f9722a3daafe3b4186f6b6457e060405160405180910390a35050565b505050565b505050565b600081519050919050565b600082825260208201905092915050565b60005b838110156110e55780820151818401526020810190506110ca565b838111156110f4576000848401525b50505050565b6000601f19601f8301169050919050565b6000611116826110ab565b61112081856110b6565b93506111308185602086016110c7565b611139816110fa565b840191505092915050565b6000602082019050818103600083015261115e818461110b565b905092915050565b600080fd5b600073ffffffffffffffffffffffffffffffffffffffff82169050919050565b60006111968261116b565b9050919050565b6111a68161118b565b81146111b157600080fd5b50565b6000813590506111c38161119d565b92915050565b6000819050919050565b6111dc816111c9565b81146111e757600080fd5b50565b6000813590506111f9816111d3565b92915050565b6000806040838503121561121657611215611166565b5b6000611224858286016111b4565b9250506020611235858286016111ea565b9150509250929050565b60008115159050919050565b6112548161123f565b82525050565b600060208201905061126f600083018461124b565b92915050565b61127e816111c9565b82525050565b60006020820190506112996000830184611275565b92915050565b6000806000606084860312156112b8576112b7611166565b5b60006112c6868287016111b4565b93505060206112d7868287016111b4565b92505060406112e8868287016111ea565b9150509250925092565b600060ff82169050919050565b611308816112f2565b82525050565b600060208201905061132360008301846112ff565b92915050565b60006020828403121561133f5761133e611166565b5b600061134d848285016111b4565b91505092915050565b61135f8161118b565b82525050565b600060208201905061137a6000830184611356565b92915050565b6000806040838503121561139757611396611166565b5b60006113a5858286016111b4565b92505060206113b6858286016111b4565b9150509250929050565b7f4e487b7100000000000000000000000000000000000000000000000000000000600052602260045260246000fd5b6000600282049050600182168061140757607f821691505b6020821081141561141b5761141a6113c0565b5b50919050565b7f45524332303a207472616e7366657220616d6f756e742065786365656473206160008201527f6c6c6f77616e6365000000000000000000000000000000000000000000000000602082015250565b600061147d6028836110b6565b915061148882611421565b604082019050919050565b600060208201905081810360008301526114ac81611470565b9050919050565b7f4e487b7100000000000000000000000000000000000000000000000000000000600052601160045260246000fd5b60006114ed826111c9565b91506114f8836111c9565b9250827fffffffffffffffffffffffffffffffffffffffffffffffffffffffffffffffff0382111561152d5761152c6114b3565b5b828201905092915050565b7f4f776e61626c653a2063616c6c6572206973206e6f7420746865206f776e6572600082015250565b600061156e6020836110b6565b915061157982611538565b602082019050919050565b6000602082019050818103600083015261159d81611561565b9050919050565b7f45524332303a2064656372656173656420616c6c6f77616e63652062656c6f7760008201527f207a65726f000000000000000000000000000000000000000000000000000000602082015250565b60006116006025836110b6565b915061160b826115a4565b604082019050919050565b6000602082019050818103600083015261162f816115f3565b9050919050565b7f4f776e61626c653a206e6577206f776e657220697320746865207a65726f206160008201527f6464726573730000000000000000000000000000000000000000000000000000602082015250565b60006116926026836110b6565b915061169d82611636565b604082019050919050565b600060208201905081810360008301526116c181611685565b9050919050565b7f45524332303a20617070726f76652066726f6d20746865207a65726f2061646460008201527f7265737300000000000000000000000000000000000000000000000000000000602082015250565b60006117246024836110b6565b915061172f826116c8565b604082019050919050565b6000602082019050818103600083015261175381611717565b9050919050565b7f45524332303a20617070726f766520746f20746865207a65726f20616464726560008201527f7373000000000000000000000000000000000000000000000000000000000000602082015250565b60006117b66022836110b6565b91506117c18261175a565b604082019050919050565b600060208201905081810360008301526117e5816117a9565b9050919050565b7f45524332303a207472616e736665722066726f6d20746865207a65726f20616460008201527f6472657373000000000000000000000000000000000000000000000000000000602082015250565b60006118486025836110b6565b9150611853826117ec565b604082019050919050565b600060208201905081810360008301526118778161183b565b9050919050565b7f45524332303a207472616e7366657220746f20746865207a65726f206164647260008201527f6573730000000000000000000000000000000000000000000000000000000000602082015250565b60006118da6023836110b6565b91506118e58261187e565b604082019050919050565b60006020820190508181036000830152611909816118cd565b9050919050565b7f45524332303a207472616e7366657220616d6f756e742065786365656473206260008201527f616c616e63650000000000000000000000000000000000000000000000000000602082015250565b600061196c6026836110b6565b915061197782611910565b604082019050919050565b6000602082019050818103600083015261199b8161195f565b9050919050565b7f45524332303a206d696e7420746f20746865207a65726f206164647265737300600082015250565b60006119d8601f836110b6565b91506119e3826119a2565b602082019050919050565b60006020820190508181036000830152611a07816119cb565b905091905056fea26469706673582212206e8b9d6f662e2fb09a72e1815318fbaefee620caf04204a929ba7d6afe9f963f64736f6c634300080a003360806040523480156200001157600080fd5b5060405162001cda38038062001cda8339818101604052810190620000379190620004d1565b828281600390805190602001906200005192919062000249565b5080600490805190602001906200006a92919062000249565b5050506000811115620000b457620000b3336200008c620000bd60201b60201c565b600a6200009a9190620006fb565b83620000a791906200074c565b620000c660201b60201c565b5b50505062000920565b60006012905090565b600073ffffffffffffffffffffffffffffffffffffffff168273ffffffffffffffffffffffffffffffffffffffff16141562000139576040517f08c379a000000000000000000000000000000000000000000000000000000000815260040162000130906200080e565b60405180910390fd5b6200014d600083836200023f60201b60201c565b806002600082825462000161919062000830565b92505081905550806000808473ffffffffffffffffffffffffffffffffffffffff1673ffffffffffffffffffffffffffffffffffffffff1681526020019081526020016000206000828254620001b8919062000830565b925050819055508173ffffffffffffffffffffffffffffffffffffffff16600073ffffffffffffffffffffffffffffffffffffffff167fddf252ad1be2c89b69c2b068fc378daa952ba7f163c4a11628f55a4df523b3ef836040516200021f91906200089e565b60405180910390a36200023b600083836200024460201b60201c565b5050565b505050565b505050565b8280546200025790620008ea565b90600052602060002090601f0160209004810192826200027b5760008555620002c7565b82601f106200029657805160ff1916838001178555620002c7565b82800160010185558215620002c7579182015b82811115620002c6578251825591602001919060010190620002a9565b5b509050620002d69190620002da565b5090565b5b80821115620002f5576000816000905550600101620002db565b5090565b6000604051905090565b600080fd5b600080fd5b600080fd5b600080fd5b6000601f19601f8301169050919050565b7f4e487b7100000000000000000000000000000000000000000000000000000000600052604160045260246000fd5b620003628262000317565b810181811067ffffffffffffffff8211171562000384576200038362000328565b5b80604052505050565b600062000399620002f9565b9050620003a7828262000357565b919050565b600067ffffffffffffffff821115620003ca57620003c962000328565b5b620003d58262000317565b9050602081019050919050565b60005b8381101562000402578082015181840152602081019050620003e5565b8381111562000412576000848401525b50505050565b60006200042f6200042984620003ac565b6200038d565b9050828152602081018484840111156200044e576200044d62000312565b5b6200045b848285620003e2565b509392505050565b600082601f8301126200047b576200047a6200030d565b5b81516200048d84826020860162000418565b91505092915050565b6000819050919050565b620004ab8162000496565b8114620004b757600080fd5b50565b600081519050620004cb81620004a0565b92915050565b600080600060608486031215620004ed57620004ec62000303565b5b600084015167ffffffffffffffff8111156200050e576200050d62000308565b5b6200051c8682870162000463565b935050602084015167ffffffffffffffff81111562000540576200053f62000308565b5b6200054e8682870162000463565b92505060406200056186828701620004ba565b9150509250925092565b7f4e487b7100000000000000000000000000000000000000000000000000000000600052601160045260246000fd5b60008160011c9050919050565b6000808291508390505b6001851115620005f957808604811115620005d157620005d06200056b565b5b6001851615620005e15780820291505b8081029050620005f1856200059a565b9450620005b1565b94509492505050565b600082620006145760019050620006e7565b81620006245760009050620006e7565b81600181146200063d576002811462000648576200067e565b6001915050620006e7565b60ff8411156200065d576200065c6200056b565b5b8360020a9150848211156200067757620006766200056b565b5b50620006e7565b5060208310610133831016604e8410600b8410161715620006b85782820a905083811115620006b257620006b16200056b565b5b620006e7565b620006c78484846001620005a7565b92509050818404811115620006e157620006e06200056b565b5b81810290505b9392505050565b600060ff82169050919050565b6000620007088262000496565b91506200071583620006ee565b9250620007447fffffffffffffffffffffffffffffffffffffffffffffffffffffffffffffffff848462000602565b905092915050565b6000620007598262000496565b9150620007668362000496565b9250817fffffffffffffffffffffffffffffffffffffffffffffffffffffffffffffffff0483118215151615620007a257620007a16200056b565b5b828202905092915050565b600082825260208201905092915050565b7f45524332303a206d696e7420746f20746865207a65726f206164647265737300600082015250565b6000620007f6601f83620007ad565b91506200080382620007be565b602082019050919050565b600060208201905081810360008301526200082981620007e7565b9050919050565b60006200083d8262000496565b91506200084a8362000496565b9250827fffffffffffffffffffffffffffffffffffffffffffffffffffffffffffffffff038211156200088257620008816200056b565b5b828201905092915050565b620008988162000496565b82525050565b6000602082019050620008b560008301846200088d565b92915050565b7f4e487b7100000000000000000000000000000000000000000000000000000000600052602260045260246000fd5b600060028204905060018216806200090357607f821691505b602082108114156200091a5762000919620008bb565b5b50919050565b6113aa80620009306000396000f3fe608060405234801561001057600080fd5b50600436106100a95760003560e01c80633950935111610071578063395093511461016857806370a082311461019857806395d89b41146101c8578063a457c2d7146101e6578063a9059cbb14610216578063dd62ed3e14610246576100a9565b806306fdde03146100ae578063095ea7b3146100cc57806318160ddd146100fc57806323b872dd1461011a578063313ce5671461014a575b600080fd5b6100b6610276565b6040516100c39190610c3e565b60405180910390f35b6100e660048036038101906100e19190610cf9565b610308565b6040516100f39190610d54565b60405180910390f35b610104610326565b6040516101119190610d7e565b60405180910390f35b610134600480360381019061012f9190610d99565b610330565b6040516101419190610d54565b60405180910390f35b610152610428565b60405161015f9190610e08565b60405180910390f35b610182600480360381019061017d9190610cf9565b610431565b60405161018f9190610d54565b60405180910390f35b6101b260048036038101906101ad9190610e23565b6104dd565b6040516101bf9190610d7e565b60405180910390f35b6101d0610525565b6040516101dd9190610c3e565b60405180910390f35b61020060048036038101906101fb9190610cf9565b6105b7565b60405161020d9190610d54565b60405180910390f35b610230600480360381019061022b9190610cf9565b6106a2565b60405161023d9190610d54565b60405180910390f35b610260600480360381019061025b9190610e50565b6106c0565b60405161026d9190610d7e565b60405180910390f35b60606003805461028590610ebf565b80601f01602080910402602001604051908101604052809291908181526020018280546102b190610ebf565b80156102fe5780601f106102d3576101008083540402835291602001916102fe565b820191906000526020600020905b8154815290600101906020018083116102e157829003601f168201915b5050505050905090565b600061031c610315610747565b848461074f565b6001905092915050565b6000600254905090565b600061033d84848461091a565b6000600160008673ffffffffffffffffffffffffffffffffffffffff1673ffffffffffffffffffffffffffffffffffffffff1681526020019081526020016000206000610388610747565b73ffffffffffffffffffffffffffffffffffffffff1673ffffffffffffffffffffffffffffffffffffffff16815260200190815260200160002054905082811015610408576040517f08c379a00000000000000000000000000000000000000000000000000000000081526004016103ff90610f63565b60405180910390fd5b61041c85610414610747565b85840361074f565b60019150509392505050565b60006012905090565b60006104d361043e610747565b84846001600061044c610747565b73ffffffffffffffffffffffffffffffffffffffff1673ffffffffffffffffffffffffffffffffffffffff16815260200190815260200160002060008873ffffffffffffffffffffffffffffffffffffffff1673ffffffffffffffffffffffffffffffffffffffff168152602001908152602001600020546104ce9190610fb2565b61074f565b6001905092915050565b60008060008373ffffffffffffffffffffffffffffffffffffffff1673ffffffffffffffffffffffffffffffffffffffff168152602001908152602001600020549050919050565b60606004805461053490610ebf565b80601f016020809104026020016040519081016040528092919081815260200182805461056090610ebf565b80156105ad5780601f10610582576101008083540402835291602001916105ad565b820191906000526020600020905b81548152906001019060200180831161059057829003601f168201915b5050505050905090565b600080600160006105c6610747565b73ffffffffffffffffffffffffffffffffffffffff1673ffffffffffffffffffffffffffffffffffffffff16815260200190815260200160002060008573ffffffffffffffffffffffffffffffffffffffff1673ffffffffffffffffffffffffffffffffffffffff16815260200190815260200160002054905082811015610683576040517f08c379a000000000000000000000000000000000000000000000000000000000815260040161067a9061107a565b60405180910390fd5b61069761068e610747565b8585840361074f565b600191505092915050565b60006106b66106af610747565b848461091a565b6001905092915050565b6000600160008473ffffffffffffffffffffffffffffffffffffffff1673ffffffffffffffffffffffffffffffffffffffff16815260200190815260200160002060008373ffffffffffffffffffffffffffffffffffffffff1673ffffffffffffffffffffffffffffffffffffffff16815260200190815260200160002054905092915050565b600033905090565b600073ffffffffffffffffffffffffffffffffffffffff168373ffffffffffffffffffffffffffffffffffffffff1614156107bf576040517f08c379a00000000000000000000000000000000000000000000000000000000081526004016107b69061110c565b60405180910390fd5b600073ffffffffffffffffffffffffffffffffffffffff168273ffffffffffffffffffffffffffffffffffffffff16141561082f576040517f08c379a00000000000000000000000000000000000000000000000000000000081526004016108269061119e565b60405180910390fd5b80600160008573ffffffffffffffffffffffffffffffffffffffff1673ffffffffffffffffffffffffffffffffffffffff16815260200190815260200160002060008473ffffffffffffffffffffffffffffffffffffffff1673ffffffffffffffffffffffffffffffffffffffff168152602001908152602001600020819055508173ffffffffffffffffffffffffffffffffffffffff168373ffffffffffffffffffffffffffffffffffffffff167f8c5be1e5ebec7d5bd14f71427d1e84f3dd0314c0f7b2291e5b200ac8c7c3b9258360405161090d9190610d7e565b60405180910390a3505050565b600073ffffffffffffffffffffffffffffffffffffffff168373ffffffffffffffffffffffffffffffffffffffff16141561098a576040517f08c379a000000000000000000000000000000000000000000000000000000000815260040161098190611230565b60405180910390fd5b600073ffffffffffffffffffffffffffffffffffffffff168273ffffffffffffffffffffffffffffffffffffffff1614156109fa576040517f08c379a00000000000000000000000000000000000000000000000000000000081526004016109f1906112c2565b60405180910390fd5b610a05838383610b9b565b60008060008573ffffffffffffffffffffffffffffffffffffffff1673ffffffffffffffffffffffffffffffffffffffff16815260200190815260200160002054905081811015610a8b576040517f08c379a0000000000000000000000000000000000000000000000000000000008152600401610a8290611354565b60405180910390fd5b8181036000808673ffffffffffffffffffffffffffffffffffffffff1673ffffffffffffffffffffffffffffffffffffffff16815260200190815260200160002081905550816000808573ffffffffffffffffffffffffffffffffffffffff1673ffffffffffffffffffffffffffffffffffffffff1681526020019081526020016000206000828254610b1e9190610fb2565b925050819055508273ffffffffffffffffffffffffffffffffffffffff168473ffffffffffffffffffffffffffffffffffffffff167fddf252ad1be2c89b69c2b068fc378daa952ba7f163c4a11628f55a4df523b3ef84604051610b829190610d7e565b60405180910390a3610b95848484610ba0565b50505050565b505050565b505050565b600081519050919050565b600082825260208201905092915050565b60005b83811015610bdf578082015181840152602081019050610bc4565b83811115610bee576000848401525b50505050565b6000601f19601f8301169050919050565b6000610c1082610ba5565b610c1a8185610bb0565b9350610c2a818560208601610bc1565b610c3381610bf4565b840191505092915050565b60006020820190508181036000830152610c588184610c05565b905092915050565b600080fd5b600073ffffffffffffffffffffffffffffffffffffffff82169050919050565b6000610c9082610c65565b9050919050565b610ca081610c85565b8114610cab57600080fd5b50565b600081359050610cbd81610c97565b92915050565b6000819050919050565b610cd681610cc3565b8114610ce157600080fd5b50565b600081359050610cf381610ccd565b92915050565b60008060408385031215610d1057610d0f610c60565b5b6000610d1e85828601610cae565b9250506020610d2f85828601610ce4565b9150509250929050565b60008115159050919050565b610d4e81610d39565b82525050565b6000602082019050610d696000830184610d45565b92915050565b610d7881610cc3565b82525050565b6000602082019050610d936000830184610d6f565b92915050565b600080600060608486031215610db257610db1610c60565b5b6000610dc086828701610cae565b9350506020610dd186828701610cae565b9250506040610de286828701610ce4565b9150509250925092565b600060ff82169050919050565b610e0281610dec565b82525050565b6000602082019050610e1d6000830184610df9565b92915050565b600060208284031215610e3957610e38610c60565b5b6000610e4784828501610cae565b91505092915050565b60008060408385031215610e6757610e66610c60565b5b6000610e7585828601610cae565b9250506020610e8685828601610cae565b9150509250929050565b7f4e487b7100000000000000000000000000000000000000000000000000000000600052602260045260246000fd5b60006002820490506001821680610ed757607f821691505b60208210811415610eeb57610eea610e90565b5b50919050565b7f45524332303a207472616e7366657220616d6f756e742065786365656473206160008201527f6c6c6f77616e6365000000000000000000000000000000000000000000000000602082015250565b6000610f4d602883610bb0565b9150610f5882610ef1565b604082019050919050565b60006020820190508181036000830152610f7c81610f40565b9050919050565b7f4e487b7100000000000000000000000000000000000000000000000000000000600052601160045260246000fd5b6000610fbd82610cc3565b9150610fc883610cc3565b9250827fffffffffffffffffffffffffffffffffffffffffffffffffffffffffffffffff03821115610ffd57610ffc610f83565b5b828201905092915050565b7f45524332303a2064656372656173656420616c6c6f77616e63652062656c6f7760008201527f207a65726f000000000000000000000000000000000000000000000000000000602082015250565b6000611064602583610bb0565b915061106f82611008565b604082019050919050565b6000602082019050818103600083015261109381611057565b9050919050565b7f45524332303a20617070726f76652066726f6d20746865207a65726f2061646460008201527f7265737300000000000000000000000000000000000000000000000000000000602082015250565b60006110f6602483610bb0565b91506111018261109a565b604082019050919050565b60006020820190508181036000830152611125816110e9565b9050919050565b7f45524332303a20617070726f766520746f20746865207a65726f20616464726560008201527f7373000000000000000000000000000000000000000000000000000000000000602082015250565b6000611188602283610bb0565b91506111938261112c565b604082019050919050565b600060208201905081810360008301526111b78161117b565b9050919050565b7f45524332303a207472616e736665722066726f6d20746865207a65726f20616460008201527f6472657373000000000000000000000000000000000000000000000000000000602082015250565b600061121a602583610bb0565b9150611225826111be565b604082019050919050565b600060208201905081810360008301526112498161120d565b9050919050565b7f45524332303a207472616e7366657220746f20746865207a65726f206164647260008201527f6573730000000000000000000000000000000000000000000000000000000000602082015250565b60006112ac602383610bb0565b91506112b782611250565b604082019050919050565b600060208201905081810360008301526112db8161129f565b9050919050565b7f45524332303a207472616e7366657220616d6f756e742065786365656473206260008201527f616c616e63650000000000000000000000000000000000000000000000000000602082015250565b600061133e602683610bb0565b9150611349826112e2565b604082019050919050565b6000602082019050818103600083015261136d81611331565b905091905056fea26469706673582212203ccd3d80ee0a46108e1c1f013f36355f8f96327496ae1e6a77d8a276fa928f6164736f6c634300080a0033a26469706673582212204cf7a3704f90afd13e3523af31038236c606075dc69018c11062c79e18eb89f764736f6c634300080a0033",
  "immutableReferences": {},
  "source": "// SPDX-License-Identifier: MIT\npragma solidity >=0.4.22 <0.9.0;\n\n//Import ERC20 tokens contracts\nimport \"./BasicToken.sol\";\nimport \"./MintableToken.sol\";\n\n\ncontract TokenGenerator {\n  constructor() public {\n  }\n\n  mapping(address=>address) public generatedTokens;\n\n  //Create a regular ERC20 token\n  function createErc20Token(uint256 totalSupply, string memory name, string memory symbol) public returns (address){\n    address owner = msg.sender;\n\n    BasicToken tokenInstance = new BasicToken(name, symbol, totalSupply);\n\n    //transfer owner\n\n    //return address\n    return address(tokenInstance);\n  }\n\n  //Create a mintable token\n  function createMintableERC20Token(uint256 totalSupply, string memory name, string memory symbol) public returns (address){\n    address owner = msg.sender;\n\n    MintableToken tokenInstance = new MintableToken (name, symbol, totalSupply);\n\n    //transfer owner\n\n    //return address\n    return address(tokenInstance);\n  }\n\n}\n",
  "sourcePath": "/Users/adewaleadeleye/projects/tokens/token-generator/contracts/TokenGenerator.sol",
  "compiler": {
    "name": "solc",
    "version": "0.8.10+commit.fc410830.Emscripten.clang"
  },
  "schemaVersion": "3.4.3",
  "updatedAt": "2022-03-05T01:00:47.947Z",
  "networkType": "ethereum",
  "devdoc": {
    "kind": "dev",
    "methods": {},
    "version": 1
  },
  "userdoc": {
    "kind": "user",
    "methods": {},
    "version": 1
  }
}